{
  "abi": [
    {
      "inputs": [
        {
          "internalType": "string",
          "name": "_name",
          "type": "string"
        },
        {
          "internalType": "string",
          "name": "_symbol",
          "type": "string"
        },
        {
          "internalType": "string",
          "name": "_badgeName",
          "type": "string"
        },
        {
          "internalType": "string",
          "name": "_badgeDescription",
          "type": "string"
        }
      ],
      "stateMutability": "nonpayable",
      "type": "constructor"
    },
    {
      "anonymous": false,
      "inputs": [
        {
          "indexed": false,
          "internalType": "address",
          "name": "owner",
          "type": "address"
        },
        {
          "indexed": false,
          "internalType": "uint256",
          "name": "toeknId",
          "type": "uint256"
        }
      ],
      "name": "MintToken",
      "type": "event"
    },
    {
      "anonymous": false,
      "inputs": [
        {
          "indexed": false,
          "internalType": "address",
          "name": "owner",
          "type": "address"
        },
        {
          "indexed": false,
          "internalType": "uint256",
          "name": "tokenId",
          "type": "uint256"
        }
      ],
      "name": "Minted",
      "type": "event"
    },
    {
      "anonymous": false,
      "inputs": [
        {
          "indexed": false,
          "internalType": "address",
          "name": "owner",
          "type": "address"
        },
        {
          "indexed": false,
          "internalType": "uint256",
          "name": "tokenId",
          "type": "uint256"
        }
      ],
      "name": "Revoked",
      "type": "event"
    },
    {
      "inputs": [
        {
          "internalType": "address",
          "name": "owner",
          "type": "address"
        }
      ],
      "name": "balanceOf",
      "outputs": [
        {
          "internalType": "uint256",
          "name": "",
          "type": "uint256"
        }
      ],
      "stateMutability": "view",
      "type": "function"
    },
    {
      "inputs": [],
      "name": "emittedCount",
      "outputs": [
        {
          "internalType": "uint256",
          "name": "",
          "type": "uint256"
        }
      ],
      "stateMutability": "view",
      "type": "function"
    },
    {
      "inputs": [
        {
          "internalType": "address",
          "name": "owner",
          "type": "address"
        }
      ],
      "name": "hasValid",
      "outputs": [
        {
          "internalType": "bool",
          "name": "",
          "type": "bool"
        }
      ],
      "stateMutability": "view",
      "type": "function"
    },
    {
      "inputs": [],
      "name": "holdersCount",
      "outputs": [
        {
          "internalType": "uint256",
          "name": "",
          "type": "uint256"
        }
      ],
      "stateMutability": "view",
      "type": "function"
    },
    {
      "inputs": [
        {
          "internalType": "address",
          "name": "",
          "type": "address"
        }
      ],
      "name": "isUserMinted",
      "outputs": [
        {
          "internalType": "bool",
          "name": "",
          "type": "bool"
        }
      ],
      "stateMutability": "view",
      "type": "function"
    },
    {
      "inputs": [
        {
          "internalType": "uint256",
          "name": "tokenId",
          "type": "uint256"
        }
      ],
      "name": "isValid",
      "outputs": [
        {
          "internalType": "bool",
          "name": "",
          "type": "bool"
        }
      ],
      "stateMutability": "view",
      "type": "function"
    },
    {
      "inputs": [
        {
          "internalType": "address",
          "name": "to",
          "type": "address"
        },
        {
          "internalType": "uint256",
          "name": "tokenId",
          "type": "uint256"
        }
      ],
      "name": "mint",
      "outputs": [],
      "stateMutability": "nonpayable",
      "type": "function"
    },
    {
      "inputs": [],
      "name": "name",
      "outputs": [
        {
          "internalType": "string",
          "name": "",
          "type": "string"
        }
      ],
      "stateMutability": "view",
      "type": "function"
    },
    {
      "inputs": [
        {
          "internalType": "uint256",
          "name": "tokenId",
          "type": "uint256"
        }
      ],
      "name": "ownerOf",
      "outputs": [
        {
          "internalType": "address",
          "name": "",
          "type": "address"
        }
      ],
      "stateMutability": "view",
      "type": "function"
    },
    {
      "inputs": [
        {
          "internalType": "bytes4",
          "name": "interfaceId",
          "type": "bytes4"
        }
      ],
      "name": "supportsInterface",
      "outputs": [
        {
          "internalType": "bool",
          "name": "",
          "type": "bool"
        }
      ],
      "stateMutability": "view",
      "type": "function"
    },
    {
      "inputs": [],
      "name": "symbol",
      "outputs": [
        {
          "internalType": "string",
          "name": "",
          "type": "string"
        }
      ],
      "stateMutability": "view",
      "type": "function"
    },
    {
      "inputs": [
        {
          "internalType": "uint256",
          "name": "index",
          "type": "uint256"
        }
      ],
      "name": "tokenByIndex",
      "outputs": [
        {
          "internalType": "uint256",
          "name": "",
          "type": "uint256"
        }
      ],
      "stateMutability": "view",
      "type": "function"
    },
    {
      "inputs": [
        {
          "internalType": "address",
          "name": "owner",
          "type": "address"
        },
        {
          "internalType": "uint256",
          "name": "index",
          "type": "uint256"
        }
      ],
      "name": "tokenOfOwnerByIndex",
      "outputs": [
        {
          "internalType": "uint256",
          "name": "",
          "type": "uint256"
        }
      ],
      "stateMutability": "view",
      "type": "function"
    },
    {
      "inputs": [
        {
          "internalType": "uint256",
          "name": "tokenId",
          "type": "uint256"
        }
      ],
      "name": "tokenURI",
      "outputs": [
        {
          "internalType": "string",
          "name": "",
          "type": "string"
        }
      ],
      "stateMutability": "view",
      "type": "function"
    }
  ],
  "bytecode": {
    "object": "0x60806040523480156200001157600080fd5b5060405162000faa38038062000faa833981016040819052620000349162000221565b8351849084906200004d906004906020850190620000ae565b50805162000063906005906020840190620000ae565b5050600880546001600160a01b031916331790555081516200008d906009906020850190620000ae565b508051620000a390600a906020840190620000ae565b505050505062000317565b828054620000bc90620002da565b90600052602060002090601f016020900481019282620000e057600085556200012b565b82601f10620000fb57805160ff19168380011785556200012b565b828001600101855582156200012b579182015b828111156200012b5782518255916020019190600101906200010e565b50620001399291506200013d565b5090565b5b808211156200013957600081556001016200013e565b634e487b7160e01b600052604160045260246000fd5b600082601f8301126200017c57600080fd5b81516001600160401b038082111562000199576200019962000154565b604051601f8301601f19908116603f01168101908282118183101715620001c457620001c462000154565b81604052838152602092508683858801011115620001e157600080fd5b600091505b83821015620002055785820183015181830184015290820190620001e6565b83821115620002175760008385830101525b9695505050505050565b600080600080608085870312156200023857600080fd5b84516001600160401b03808211156200025057600080fd5b6200025e888389016200016a565b955060208701519150808211156200027557600080fd5b62000283888389016200016a565b945060408701519150808211156200029a57600080fd5b620002a8888389016200016a565b93506060870151915080821115620002bf57600080fd5b50620002ce878288016200016a565b91505092959194509250565b600181811c90821680620002ef57607f821691505b602082108114156200031157634e487b7160e01b600052602260045260246000fd5b50919050565b610c8380620003276000396000f3fe608060405234801561001057600080fd5b50600436106100ea5760003560e01c80636352211e1161008c57806395d89b411161006657806395d89b41146101fe578063b708f2fa14610206578063c87b56dd14610229578063f577a5001461023c57600080fd5b80636352211e146101a25780636b4ed21b146101cd57806370a08231146101d557600080fd5b80632f745c59116100c85780632f745c591461013e57806340c10f191461015157806343945512146101665780634f6ccce71461019157600080fd5b806301ffc9a7146100ef57806306fdde031461011757806326019c181461012c575b600080fd5b6101026100fd3660046108d7565b61024f565b60405190151581526020015b60405180910390f35b61011f6102bc565b60405161010e9190610938565b6006545b60405190815260200161010e565b61013061014c366004610987565b61034e565b61016461015f366004610987565b6103d8565b005b6101026101743660046109b1565b6001600160a01b0316600090815260036020526040902054151590565b61013061019f3660046109cc565b90565b6101b56101b03660046109cc565b610494565b6040516001600160a01b03909116815260200161010e565b600754610130565b6101306101e33660046109b1565b6001600160a01b031660009081526001602052604090205490565b61011f6104b2565b6101026102143660046109b1565b600b6020526000908152604090205460ff1681565b61011f6102373660046109cc565b6104c1565b61010261024a3660046109cc565b61051b565b60006001600160e01b0319821663a511533d60e01b148061028057506001600160e01b03198216635b5e139f60e01b145b8061029b57506001600160e01b03198216632d57debd60e01b145b806102b657506301ffc9a760e01b6001600160e01b03198316145b92915050565b6060600480546102cb906109e5565b80601f01602080910402602001604051908101604052809291908181526020018280546102f7906109e5565b80156103445780601f1061031957610100808354040283529160200191610344565b820191906000526020600020905b81548152906001019060200180831161032757829003601f168201915b5050505050905090565b6001600160a01b0382166000908152600160205260408120805483106103b25760405162461bcd60e51b8152602060048201526014602482015273151bdad95b88191bd95cc81b9bdd08195e1a5cdd60621b60448201526064015b60405180910390fd5b8083815481106103c4576103c4610a20565b906000526020600020015491505092915050565b336000908152600b602052604090205460ff161561042e5760405162461bcd60e51b8152602060048201526013602482015272155cd95c88185b1c9958591e481b5a5b9d1959606a1b60448201526064016103a9565b60006104393361053a565b336000818152600b6020908152604091829020805460ff19166001179055815192835282018390529192507fdcdea898caf5576419f89caf69301592a4758349a0bd62300b58849213420a72910160405180910390a1505050565b600061049f826105a9565b600101546001600160a01b031692915050565b6060600580546102cb906109e5565b606060006009600a6040516020016104da929190610ad0565b60405160208183030381529060405290506104f481610608565b6040516020016105049190610b43565b604051602081830303815290604052915050919050565b6000610526826105a9565b60010154600160a01b900460ff1692915050565b6006546105498282600161075c565b604080516001600160a01b0384168152602081018390527f30385c845b448a36257a6a1716e6ad2e1bc2cbe333cde1e69fe849ad6511adfe910160405180910390a160016006600082825461059e9190610b9e565b909155509092915050565b600081815260208190526040812060018101546001600160a01b03166102b65760405162461bcd60e51b8152602060048201526014602482015273151bdad95b88191bd95cc81b9bdd08195e1a5cdd60621b60448201526064016103a9565b606081516000141561062857505060408051602081019091526000815290565b6000604051806060016040528060408152602001610c0e60409139905060006003845160026106579190610b9e565b6106619190610bb6565b61066c906004610bd8565b67ffffffffffffffff81111561068457610684610bf7565b6040519080825280601f01601f1916602001820160405280156106ae576020820181803683370190505b509050600182016020820185865187015b8082101561071a576003820191508151603f8160121c168501518453600184019350603f81600c1c168501518453600184019350603f8160061c168501518453600184019350603f81168501518453506001830192506106bf565b5050600386510660018114610736576002811461074957610751565b603d6001830353603d6002830353610751565b603d60018303535b509195945050505050565b6000828152602081905260409020600101546001600160a01b0316156107c45760405162461bcd60e51b815260206004820152601d60248201527f43616e6e6f74206d696e7420616e2061737369676e656420746f6b656e00000060448201526064016103a9565b6001600160a01b0383166000908152600160205260409020546107fa576001600760008282546107f49190610b9e565b90915550505b604080516060810182523381526001600160a01b0385811660208084018281528615801586880190815260008a8152808552888120975188549088166001600160a01b031990911617885592516001978801805492511515600160a01b026001600160a81b031990931691909716171790945591825283815284822080546002835286842089855283529583208690558482529385018455928152919091209091018390556108d2576001600160a01b03831660009081526003602052604081208054600192906108cc908490610b9e565b90915550505b505050565b6000602082840312156108e957600080fd5b81356001600160e01b03198116811461090157600080fd5b9392505050565b60005b8381101561092357818101518382015260200161090b565b83811115610932576000848401525b50505050565b6020815260008251806020840152610957816040850160208701610908565b601f01601f19169190910160400192915050565b80356001600160a01b038116811461098257600080fd5b919050565b6000806040838503121561099a57600080fd5b6109a38361096b565b946020939093013593505050565b6000602082840312156109c357600080fd5b6109018261096b565b6000602082840312156109de57600080fd5b5035919050565b600181811c908216806109f957607f821691505b60208210811415610a1a57634e487b7160e01b600052602260045260246000fd5b50919050565b634e487b7160e01b600052603260045260246000fd5b8054600090600181811c9080831680610a5057607f831692505b6020808410821415610a7257634e487b7160e01b600052602260045260246000fd5b818015610a865760018114610a9757610ac4565b60ff19861689528489019650610ac4565b60008881526020902060005b86811015610abc5781548b820152908501908301610aa3565b505084890196505b50505050505092915050565b607b60f81b815268113730b6b2911d101160b91b60018201526000610af8600a830185610a36565b61088b60f21b81526f113232b9b1b934b83a34b7b7111d101160811b6002820152610b266012820185610a36565b601160f91b8152607d60f81b600182015260020195945050505050565b7f646174613a6170706c69636174696f6e2f6a736f6e3b6261736536342c000000815260008251610b7b81601d850160208701610908565b91909101601d0192915050565b634e487b7160e01b600052601160045260246000fd5b60008219821115610bb157610bb1610b88565b500190565b600082610bd357634e487b7160e01b600052601260045260246000fd5b500490565b6000816000190483118215151615610bf257610bf2610b88565b500290565b634e487b7160e01b600052604160045260246000fdfe4142434445464748494a4b4c4d4e4f505152535455565758595a6162636465666768696a6b6c6d6e6f707172737475767778797a303132333435363738392b2fa2646970667358221220dd4b30b03b65d7d4fe6e00410f683e526039e4a06bc591f1c09f4e1ededab81964736f6c63430008090033",
    "linkReferences": {}
  },
  "methodIdentifiers": {
    "balanceOf(address)": "70a08231",
    "emittedCount()": "26019c18",
    "hasValid(address)": "43945512",
    "holdersCount()": "6b4ed21b",
    "isUserMinted(address)": "b708f2fa",
    "isValid(uint256)": "f577a500",
    "mint(address,uint256)": "40c10f19",
    "name()": "06fdde03",
    "ownerOf(uint256)": "6352211e",
    "supportsInterface(bytes4)": "01ffc9a7",
    "symbol()": "95d89b41",
    "tokenByIndex(uint256)": "4f6ccce7",
    "tokenOfOwnerByIndex(address,uint256)": "2f745c59",
    "tokenURI(uint256)": "c87b56dd"
  },
  "id": 0
}